{
  "contractName": "CommitRevealLottery",
  "abi": [
    {
      "inputs": [],
      "stateMutability": "nonpayable",
      "type": "constructor"
    },
    {
      "inputs": [],
      "name": "DURATION",
      "outputs": [
        {
          "internalType": "uint256",
          "name": "",
          "type": "uint256"
        }
      ],
      "stateMutability": "view",
      "type": "function",
      "constant": true
    },
    {
      "inputs": [],
      "name": "commitCloses",
      "outputs": [
        {
          "internalType": "uint256",
          "name": "",
          "type": "uint256"
        }
      ],
      "stateMutability": "view",
      "type": "function",
      "constant": true
    },
    {
      "inputs": [
        {
          "internalType": "address",
          "name": "",
          "type": "address"
        }
      ],
      "name": "commitments",
      "outputs": [
        {
          "internalType": "bytes32",
          "name": "",
          "type": "bytes32"
        }
      ],
      "stateMutability": "view",
      "type": "function",
      "constant": true
    },
    {
      "inputs": [],
      "name": "lotteryId",
      "outputs": [
        {
          "internalType": "uint256",
          "name": "",
          "type": "uint256"
        }
      ],
      "stateMutability": "view",
      "type": "function",
      "constant": true
    },
    {
      "inputs": [
        {
          "internalType": "uint256",
          "name": "",
          "type": "uint256"
        }
      ],
      "name": "players",
      "outputs": [
        {
          "internalType": "address",
          "name": "",
          "type": "address"
        }
      ],
      "stateMutability": "view",
      "type": "function",
      "constant": true
    },
    {
      "inputs": [],
      "name": "revealCloses",
      "outputs": [
        {
          "internalType": "uint256",
          "name": "",
          "type": "uint256"
        }
      ],
      "stateMutability": "view",
      "type": "function",
      "constant": true
    },
    {
      "inputs": [],
      "name": "winner",
      "outputs": [
        {
          "internalType": "address",
          "name": "",
          "type": "address"
        }
      ],
      "stateMutability": "view",
      "type": "function",
      "constant": true
    },
    {
      "inputs": [
        {
          "internalType": "uint256",
          "name": "",
          "type": "uint256"
        }
      ],
      "name": "winnerHistory",
      "outputs": [
        {
          "internalType": "address",
          "name": "",
          "type": "address"
        }
      ],
      "stateMutability": "view",
      "type": "function",
      "constant": true
    },
    {
      "inputs": [
        {
          "internalType": "bytes32",
          "name": "commitment",
          "type": "bytes32"
        }
      ],
      "name": "enter",
      "outputs": [],
      "stateMutability": "payable",
      "type": "function",
      "payable": true
    },
    {
      "inputs": [
        {
          "internalType": "uint256",
          "name": "secret",
          "type": "uint256"
        }
      ],
      "name": "createCommitment",
      "outputs": [
        {
          "internalType": "bytes32",
          "name": "",
          "type": "bytes32"
        }
      ],
      "stateMutability": "view",
      "type": "function",
      "constant": true
    },
    {
      "inputs": [
        {
          "internalType": "uint256",
          "name": "secret",
          "type": "uint256"
        }
      ],
      "name": "reveal",
      "outputs": [],
      "stateMutability": "nonpayable",
      "type": "function"
    },
    {
      "inputs": [],
      "name": "pickWinner",
      "outputs": [],
      "stateMutability": "nonpayable",
      "type": "function"
    },
    {
      "inputs": [],
      "name": "withdrawPrize",
      "outputs": [],
      "stateMutability": "payable",
      "type": "function",
      "payable": true
    }
  ],
  "bytecode": "0x60806040523480156200001157600080fd5b506004436200002191906200007d565b60008190555060046000546200003891906200007d565b600181905550620000da565b6000819050919050565b7f4e487b7100000000000000000000000000000000000000000000000000000000600052601160045260246000fd5b60006200008a8262000044565b9150620000978362000044565b9250827fffffffffffffffffffffffffffffffffffffffffffffffffffffffffffffffff03821115620000cf57620000ce6200004e565b5b828201905092915050565b6113cd80620000ea6000396000f3fe6080604052600436106100c25760003560e01c8063bcef097e1161007f578063e580f47b11610059578063e580f47b14610216578063e8fcf72314610241578063eb88d6881461027e578063f71d96cb146102bb576100c2565b8063bcef097e14610197578063c2ca0ac5146101c2578063dfbf53ae146101eb576100c2565b80631be05289146100c75780634373fde5146100f257806348d37a581461011d578063568ab21e146101275780635d495aea1461014357806375964b551461015a575b600080fd5b3480156100d357600080fd5b506100dc6102f8565b6040516100e99190610b09565b60405180910390f35b3480156100fe57600080fd5b506101076102fd565b6040516101149190610b09565b60405180910390f35b610125610303565b005b610141600480360381019061013c9190610b5f565b610548565b005b34801561014f57600080fd5b5061015861061d565b005b34801561016657600080fd5b50610181600480360381019061017c9190610bb8565b610816565b60405161018e9190610c26565b60405180910390f35b3480156101a357600080fd5b506101ac610849565b6040516101b99190610b09565b60405180910390f35b3480156101ce57600080fd5b506101e960048036038101906101e49190610bb8565b61084f565b005b3480156101f757600080fd5b506102006109fd565b60405161020d9190610c26565b60405180910390f35b34801561022257600080fd5b5061022b610a23565b6040516102389190610b09565b60405180910390f35b34801561024d57600080fd5b5061026860048036038101906102639190610c6d565b610a29565b6040516102759190610ca9565b60405180910390f35b34801561028a57600080fd5b506102a560048036038101906102a09190610bb8565b610a41565b6040516102b29190610ca9565b60405180910390f35b3480156102c757600080fd5b506102e260048036038101906102dd9190610bb8565b610a73565b6040516102ef9190610c26565b60405180910390f35b600481565b60015481565b600460009054906101000a900473ffffffffffffffffffffffffffffffffffffffff1673ffffffffffffffffffffffffffffffffffffffff163373ffffffffffffffffffffffffffffffffffffffff1614610393576040517f08c379a000000000000000000000000000000000000000000000000000000000815260040161038a90610d21565b60405180910390fd5b600460006101000a81549073ffffffffffffffffffffffffffffffffffffffff021916905560005b60038054905081101561045c5760066000600383815481106103e0576103df610d41565b5b9060005260206000200160009054906101000a900473ffffffffffffffffffffffffffffffffffffffff1673ffffffffffffffffffffffffffffffffffffffff1673ffffffffffffffffffffffffffffffffffffffff16815260200190815260200160002060009055808061045490610d9f565b9150506103bb565b506003600061046b9190610ab2565b60056000905560044361047e9190610de7565b60008190555060046000546104939190610de7565b60018190555060003373ffffffffffffffffffffffffffffffffffffffff16476040516104bf90610e6e565b60006040518083038185875af1925050503d80600081146104fc576040519150601f19603f3d011682016040523d82523d6000602084013e610501565b606091505b5050905080610545576040517f08c379a000000000000000000000000000000000000000000000000000000000815260040161053c90610ecf565b60405180910390fd5b50565b662386f26fc10000341015610592576040517f08c379a000000000000000000000000000000000000000000000000000000000815260040161058990610f61565b60405180910390fd5b60005443106105d6576040517f08c379a00000000000000000000000000000000000000000000000000000000081526004016105cd90610fcd565b60405180910390fd5b80600660003373ffffffffffffffffffffffffffffffffffffffff1673ffffffffffffffffffffffffffffffffffffffff1681526020019081526020016000208190555050565b600154431015610662576040517f08c379a000000000000000000000000000000000000000000000000000000000815260040161065990611039565b60405180910390fd5b600073ffffffffffffffffffffffffffffffffffffffff16600460009054906101000a900473ffffffffffffffffffffffffffffffffffffffff1673ffffffffffffffffffffffffffffffffffffffff16146106f3576040517f08c379a00000000000000000000000000000000000000000000000000000000081526004016106ea906110a5565b60405180910390fd5b6003808054905060055460001c61070a91906110f4565b8154811061071b5761071a610d41565b5b9060005260206000200160009054906101000a900473ffffffffffffffffffffffffffffffffffffffff16600460006101000a81548173ffffffffffffffffffffffffffffffffffffffff021916908373ffffffffffffffffffffffffffffffffffffffff160217905550600460009054906101000a900473ffffffffffffffffffffffffffffffffffffffff1660076000600254815260200190815260200160002060006101000a81548173ffffffffffffffffffffffffffffffffffffffff021916908373ffffffffffffffffffffffffffffffffffffffff1602179055506002600081548092919061080f90610d9f565b9190505550565b60076020528060005260406000206000915054906101000a900473ffffffffffffffffffffffffffffffffffffffff1681565b60005481565b6000544311610893576040517f08c379a000000000000000000000000000000000000000000000000000000000815260040161088a90611197565b60405180910390fd5b60015443106108d7576040517f08c379a00000000000000000000000000000000000000000000000000000000081526004016108ce90611229565b60405180910390fd5b60006108e282610a41565b9050600660003373ffffffffffffffffffffffffffffffffffffffff1673ffffffffffffffffffffffffffffffffffffffff168152602001908152602001600020548114610965576040517f08c379a000000000000000000000000000000000000000000000000000000000815260040161095c90611295565b60405180910390fd5b6005548260405160200161097a9291906112f7565b604051602081830303815290604052805190602001206005819055506003339080600181540180825580915050600190039060005260206000200160009091909190916101000a81548173ffffffffffffffffffffffffffffffffffffffff021916908373ffffffffffffffffffffffffffffffffffffffff1602179055505050565b600460009054906101000a900473ffffffffffffffffffffffffffffffffffffffff1681565b60025481565b60066020528060005260406000206000915090505481565b60003382604051602001610a5692919061136b565b604051602081830303815290604052805190602001209050919050565b60038181548110610a8357600080fd5b906000526020600020016000915054906101000a900473ffffffffffffffffffffffffffffffffffffffff1681565b5080546000825590600052602060002090810190610ad09190610ad3565b50565b5b80821115610aec576000816000905550600101610ad4565b5090565b6000819050919050565b610b0381610af0565b82525050565b6000602082019050610b1e6000830184610afa565b92915050565b600080fd5b6000819050919050565b610b3c81610b29565b8114610b4757600080fd5b50565b600081359050610b5981610b33565b92915050565b600060208284031215610b7557610b74610b24565b5b6000610b8384828501610b4a565b91505092915050565b610b9581610af0565b8114610ba057600080fd5b50565b600081359050610bb281610b8c565b92915050565b600060208284031215610bce57610bcd610b24565b5b6000610bdc84828501610ba3565b91505092915050565b600073ffffffffffffffffffffffffffffffffffffffff82169050919050565b6000610c1082610be5565b9050919050565b610c2081610c05565b82525050565b6000602082019050610c3b6000830184610c17565b92915050565b610c4a81610c05565b8114610c5557600080fd5b50565b600081359050610c6781610c41565b92915050565b600060208284031215610c8357610c82610b24565b5b6000610c9184828501610c58565b91505092915050565b610ca381610b29565b82525050565b6000602082019050610cbe6000830184610c9a565b92915050565b600082825260208201905092915050565b7f596f75277265206e6f74207468652077696e6e65720000000000000000000000600082015250565b6000610d0b601583610cc4565b9150610d1682610cd5565b602082019050919050565b60006020820190508181036000830152610d3a81610cfe565b9050919050565b7f4e487b7100000000000000000000000000000000000000000000000000000000600052603260045260246000fd5b7f4e487b7100000000000000000000000000000000000000000000000000000000600052601160045260246000fd5b6000610daa82610af0565b91507fffffffffffffffffffffffffffffffffffffffffffffffffffffffffffffffff8203610ddc57610ddb610d70565b5b600182019050919050565b6000610df282610af0565b9150610dfd83610af0565b9250827fffffffffffffffffffffffffffffffffffffffffffffffffffffffffffffffff03821115610e3257610e31610d70565b5b828201905092915050565b600081905092915050565b50565b6000610e58600083610e3d565b9150610e6382610e48565b600082019050919050565b6000610e7982610e4b565b9150819050919050565b7f4661696c656420746f2073656e6420457468657220746f2077696e6e65720000600082015250565b6000610eb9601e83610cc4565b9150610ec482610e83565b602082019050919050565b60006020820190508181036000830152610ee881610eac565b9050919050565b7f6d73672e76616c75652073686f756c642062652067726561746572207468616e60008201527f206f7220657175616c20746f20302e3031206574686572000000000000000000602082015250565b6000610f4b603783610cc4565b9150610f5682610eef565b604082019050919050565b60006020820190508181036000830152610f7a81610f3e565b9050919050565b7f636f6d6d6974206475726174696f6e206973206f766572000000000000000000600082015250565b6000610fb7601783610cc4565b9150610fc282610f81565b602082019050919050565b60006020820190508181036000830152610fe681610faa565b9050919050565b7f4e6f742079657420746f207069636b2077696e6e657200000000000000000000600082015250565b6000611023601683610cc4565b915061102e82610fed565b602082019050919050565b6000602082019050818103600083015261105281611016565b9050919050565b7f77696e6e657220697320616c7265616479207365740000000000000000000000600082015250565b600061108f601583610cc4565b915061109a82611059565b602082019050919050565b600060208201905081810360008301526110be81611082565b9050919050565b7f4e487b7100000000000000000000000000000000000000000000000000000000600052601260045260246000fd5b60006110ff82610af0565b915061110a83610af0565b92508261111a576111196110c5565b5b828206905092915050565b7f636f6d6d6974206475726174696f6e206973206e6f7420636c6f73656420796560008201527f7400000000000000000000000000000000000000000000000000000000000000602082015250565b6000611181602183610cc4565b915061118c82611125565b604082019050919050565b600060208201905081810360008301526111b081611174565b9050919050565b7f72657665616c206475726174696f6e20697320616c726561647920636c6f736560008201527f6400000000000000000000000000000000000000000000000000000000000000602082015250565b6000611213602183610cc4565b915061121e826111b7565b604082019050919050565b6000602082019050818103600083015261124281611206565b9050919050565b7f636f6d6d6974206e6f74206d6174636865730000000000000000000000000000600082015250565b600061127f601283610cc4565b915061128a82611249565b602082019050919050565b600060208201905081810360008301526112ae81611272565b9050919050565b6000819050919050565b6112d06112cb82610b29565b6112b5565b82525050565b6000819050919050565b6112f16112ec82610af0565b6112d6565b82525050565b600061130382856112bf565b60208201915061131382846112e0565b6020820191508190509392505050565b60008160601b9050919050565b600061133b82611323565b9050919050565b600061134d82611330565b9050919050565b61136561136082610c05565b611342565b82525050565b60006113778285611354565b60148201915061138782846112e0565b602082019150819050939250505056fea26469706673582212201f9ed155c3dea7efa98eab6f773ae3c909cd4ed1d112bc3bdee82afbc13e78e564736f6c634300080f0033",
  "immutableReferences": {},
  "source": "//SPDX-License-Identifier: MIT\r\npragma solidity ^0.8.15;\r\n\r\ncontract CommitRevealLottery{\r\n    uint256 public commitCloses;\r\n    uint256 public revealCloses;\r\n    uint256 public constant DURATION = 4;\r\n\r\n    uint256 public lotteryId;\r\n    address[] public players;\r\n    address public winner;\r\n    bytes32 seed;\r\n    mapping (address => bytes32) public commitments;\r\n    mapping (uint256 => address) public winnerHistory;\r\n\r\n    constructor(){\r\n        commitCloses = block.number + DURATION;\r\n        revealCloses = commitCloses + DURATION;\r\n    }\r\n    \r\n    function enter(bytes32 commitment) public payable{\r\n        require(msg.value >= 0.01 ether, \"msg.value should be greater than or equal to 0.01 ether\");\r\n        require(block.number < commitCloses, \"commit duration is over\");\r\n\r\n        commitments[msg.sender] = commitment;\r\n    }\r\n\r\n    function createCommitment(uint256 secret) public view returns (bytes32){\r\n        return keccak256(abi.encodePacked(msg.sender, secret));\r\n    }\r\n\r\n    function reveal(uint256 secret) public {\r\n        require(block.number > commitCloses,\"commit duration is not closed yet\");\r\n        require(block.number < revealCloses,\"reveal duration is already closed\");\r\n\r\n        bytes32 commit = createCommitment(secret);\r\n        require(commit == commitments[msg.sender], \"commit not matches\");\r\n\r\n        seed = keccak256(abi.encodePacked(seed, secret));\r\n        players.push(msg.sender);\r\n    }\r\n\r\n    function pickWinner() public{\r\n        require(block.number >= revealCloses,\"Not yet to pick winner\");\r\n        require(winner == address(0), \"winner is already set\");\r\n\r\n        winner = players[uint256(seed) % players.length];\r\n\r\n        winnerHistory[lotteryId] = winner;\r\n        lotteryId++;\r\n    }\r\n\r\n    function withdrawPrize() public payable{\r\n        require(msg.sender == winner, \"You're not the winner\");\r\n        delete winner;\r\n        for (uint256 i = 0;i<players.length;i++){\r\n            delete commitments[players[i]];\r\n        }\r\n\r\n        delete players;\r\n        delete seed;\r\n\r\n        commitCloses = block.number+DURATION;\r\n        revealCloses = commitCloses + DURATION;\r\n\r\n        (bool success,) = payable(msg.sender).call{value:address(this).balance}(\"\");\r\n        require(success, \"Failed to send Ether to winner\");\r\n    }\r\n}",
  "sourcePath": "E:\\blockchain\\FC\\lottery-truffle\\contracts\\CommitRevealLottery.sol",
  "compiler": {
    "name": "solc",
    "version": "0.8.15+commit.e14f2714.Emscripten.clang"
  },
  "schemaVersion": "3.4.14",
  "updatedAt": "2023-07-31T07:16:36.112Z",
  "networkType": "ethereum",
  "devdoc": {
    "kind": "dev",
    "methods": {},
    "version": 1
  },
  "userdoc": {
    "kind": "user",
    "methods": {},
    "version": 1
  }
}